{
  "contractName": "AIModelMarketplace",
  "abi": [
    {
      "anonymous": false,
      "inputs": [
        {
          "indexed": false,
          "internalType": "uint256",
          "name": "modelId",
          "type": "uint256"
        },
        {
          "indexed": false,
          "internalType": "string",
          "name": "name",
          "type": "string"
        },
        {
          "indexed": false,
          "internalType": "uint256",
          "name": "price",
          "type": "uint256"
        },
        {
          "indexed": false,
          "internalType": "address",
          "name": "creator",
          "type": "address"
        }
      ],
      "name": "ModelListed",
      "type": "event"
    },
    {
      "anonymous": false,
      "inputs": [
        {
          "indexed": false,
          "internalType": "uint256",
          "name": "modelId",
          "type": "uint256"
        },
        {
          "indexed": false,
          "internalType": "address",
          "name": "buyer",
          "type": "address"
        }
      ],
      "name": "ModelPurchased",
      "type": "event"
    },
    {
      "anonymous": false,
      "inputs": [
        {
          "indexed": false,
          "internalType": "uint256",
          "name": "modelId",
          "type": "uint256"
        },
        {
          "indexed": false,
          "internalType": "uint8",
          "name": "rating",
          "type": "uint8"
        },
        {
          "indexed": false,
          "internalType": "address",
          "name": "rater",
          "type": "address"
        }
      ],
      "name": "ModelRated",
      "type": "event"
    },
    {
      "inputs": [],
      "name": "modelCount",
      "outputs": [
        {
          "internalType": "uint256",
          "name": "",
          "type": "uint256"
        }
      ],
      "stateMutability": "view",
      "type": "function",
      "constant": true
    },
    {
      "inputs": [
        {
          "internalType": "uint256",
          "name": "",
          "type": "uint256"
        }
      ],
      "name": "models",
      "outputs": [
        {
          "internalType": "string",
          "name": "name",
          "type": "string"
        },
        {
          "internalType": "string",
          "name": "description",
          "type": "string"
        },
        {
          "internalType": "uint256",
          "name": "price",
          "type": "uint256"
        },
        {
          "internalType": "address payable",
          "name": "creator",
          "type": "address"
        },
        {
          "internalType": "uint8",
          "name": "ratingSum",
          "type": "uint8"
        },
        {
          "internalType": "uint8",
          "name": "ratingCount",
          "type": "uint8"
        }
      ],
      "stateMutability": "view",
      "type": "function",
      "constant": true
    },
    {
      "inputs": [
        {
          "internalType": "string",
          "name": "name",
          "type": "string"
        },
        {
          "internalType": "string",
          "name": "description",
          "type": "string"
        },
        {
          "internalType": "uint256",
          "name": "price",
          "type": "uint256"
        }
      ],
      "name": "listModel",
      "outputs": [],
      "stateMutability": "nonpayable",
      "type": "function"
    },
    {
      "inputs": [
        {
          "internalType": "uint256",
          "name": "modelId",
          "type": "uint256"
        }
      ],
      "name": "purchaseModel",
      "outputs": [],
      "stateMutability": "payable",
      "type": "function",
      "payable": true
    },
    {
      "inputs": [
        {
          "internalType": "uint256",
          "name": "modelId",
          "type": "uint256"
        },
        {
          "internalType": "uint8",
          "name": "rating",
          "type": "uint8"
        }
      ],
      "name": "rateModel",
      "outputs": [],
      "stateMutability": "nonpayable",
      "type": "function"
    },
    {
      "inputs": [
        {
          "internalType": "uint256",
          "name": "modelId",
          "type": "uint256"
        }
      ],
      "name": "getModelDetails",
      "outputs": [
        {
          "internalType": "string",
          "name": "",
          "type": "string"
        },
        {
          "internalType": "string",
          "name": "",
          "type": "string"
        },
        {
          "internalType": "uint256",
          "name": "",
          "type": "uint256"
        },
        {
          "internalType": "address",
          "name": "",
          "type": "address"
        },
        {
          "internalType": "uint8",
          "name": "",
          "type": "uint8"
        }
      ],
      "stateMutability": "view",
      "type": "function",
      "constant": true
    }
  ],
  "bytecode": "0x608060405234801561001057600080fd5b506110be806100206000396000f3fe6080604052600436106100555760003560e01c806312ee1c0e1461005a5780631c788a9a1461008357806331fc042f146100ac5780636a030ca9146100ed578063c6a645fe1461012f578063dc7468621461015a575b600080fd5b34801561006657600080fd5b50610081600480360381019061007c91906109b6565b610176565b005b34801561008f57600080fd5b506100aa60048036038101906100a59190610a5e565b610301565b005b3480156100b857600080fd5b506100d360048036038101906100ce9190610a35565b61041f565b6040516100e4959493929190610bfe565b60405180910390f35b3480156100f957600080fd5b50610114600480360381019061010f9190610a35565b6105f1565b60405161012696959493929190610b8f565b60405180910390f35b34801561013b57600080fd5b50610144610777565b6040516101519190610c9f565b60405180910390f35b610174600480360381019061016f9190610a35565b61077d565b005b6040518060c001604052808481526020018381526020018281526020013373ffffffffffffffffffffffffffffffffffffffff168152602001600060ff168152602001600060ff16815250600080600154815260200190815260200160002060008201518160000190805190602001906101f1929190610881565b50602082015181600101908051906020019061020e929190610881565b506040820151816002015560608201518160030160006101000a81548173ffffffffffffffffffffffffffffffffffffffff021916908373ffffffffffffffffffffffffffffffffffffffff16021790555060808201518160030160146101000a81548160ff021916908360ff16021790555060a08201518160030160156101000a81548160ff021916908360ff1602179055509050507f4eed6af0d402cb471979373747ee3f09e77a623bff41d503ce96edacb72d858f6001548483336040516102dc9493929190610ce3565b60405180910390a1600160008154809291906102f790610f1a565b9190505550505050565b6000806000848152602001908152602001600020905060008260ff1611801561032e575060058260ff1611155b61036d576040517f08c379a000000000000000000000000000000000000000000000000000000000815260040161036490610c7f565b60405180910390fd5b818160030160148282829054906101000a900460ff1661038d9190610de3565b92506101000a81548160ff021916908360ff16021790555080600301601581819054906101000a900460ff16809291906103c690610f63565b91906101000a81548160ff021916908360ff160217905550507f4129c8696bb756892ebbda9c4396a685357b1f8eddd505fee0f194e56f8c9a2b83833360405161041293929190610d2f565b60405180910390a1505050565b60608060008060008060008088815260200190815260200160002090506000808260030160159054906101000a900460ff1660ff161161046057600061048f565b8160030160159054906101000a900460ff168260030160149054906101000a900460ff1661048e9190610e1a565b5b9050816000018260010183600201548460030160009054906101000a900473ffffffffffffffffffffffffffffffffffffffff16848480546104d090610ee8565b80601f01602080910402602001604051908101604052809291908181526020018280546104fc90610ee8565b80156105495780601f1061051e57610100808354040283529160200191610549565b820191906000526020600020905b81548152906001019060200180831161052c57829003601f168201915b5050505050945083805461055c90610ee8565b80601f016020809104026020016040519081016040528092919081815260200182805461058890610ee8565b80156105d55780601f106105aa576101008083540402835291602001916105d5565b820191906000526020600020905b8154815290600101906020018083116105b857829003601f168201915b5050505050935096509650965096509650505091939590929450565b600060205280600052604060002060009150905080600001805461061490610ee8565b80601f016020809104026020016040519081016040528092919081815260200182805461064090610ee8565b801561068d5780601f106106625761010080835404028352916020019161068d565b820191906000526020600020905b81548152906001019060200180831161067057829003601f168201915b5050505050908060010180546106a290610ee8565b80601f01602080910402602001604051908101604052809291908181526020018280546106ce90610ee8565b801561071b5780601f106106f05761010080835404028352916020019161071b565b820191906000526020600020905b8154815290600101906020018083116106fe57829003601f168201915b5050505050908060020154908060030160009054906101000a900473ffffffffffffffffffffffffffffffffffffffff16908060030160149054906101000a900460ff16908060030160159054906101000a900460ff16905086565b60015481565b60008060008381526020019081526020016000209050806002015434146107d9576040517f08c379a00000000000000000000000000000000000000000000000000000000081526004016107d090610c5f565b60405180910390fd5b8060030160009054906101000a900473ffffffffffffffffffffffffffffffffffffffff1673ffffffffffffffffffffffffffffffffffffffff166108fc349081150290604051600060405180830381858888f19350505050158015610843573d6000803e3d6000fd5b507fc8581808129c51c0416692a5ea1b58e080ae8f21e384eefe2f2dc85d231d12ba8233604051610875929190610cba565b60405180910390a15050565b82805461088d90610ee8565b90600052602060002090601f0160209004810192826108af57600085556108f6565b82601f106108c857805160ff19168380011785556108f6565b828001600101855582156108f6579182015b828111156108f55782518255916020019190600101906108da565b5b5090506109039190610907565b5090565b5b80821115610920576000816000905550600101610908565b5090565b600061093761093284610d97565b610d66565b90508281526020810184848401111561094f57600080fd5b61095a848285610ea6565b509392505050565b600082601f83011261097357600080fd5b8135610983848260208601610924565b91505092915050565b60008135905061099b8161105a565b92915050565b6000813590506109b081611071565b92915050565b6000806000606084860312156109cb57600080fd5b600084013567ffffffffffffffff8111156109e557600080fd5b6109f186828701610962565b935050602084013567ffffffffffffffff811115610a0e57600080fd5b610a1a86828701610962565b9250506040610a2b8682870161098c565b9150509250925092565b600060208284031215610a4757600080fd5b6000610a558482850161098c565b91505092915050565b60008060408385031215610a7157600080fd5b6000610a7f8582860161098c565b9250506020610a90858286016109a1565b9150509250929050565b610aa381610e5d565b82525050565b610ab281610e4b565b82525050565b6000610ac382610dc7565b610acd8185610dd2565b9350610add818560208601610eb5565b610ae681611049565b840191505092915050565b6000610afe601483610dd2565b91507f496e636f72726563742070726963652073656e740000000000000000000000006000830152602082019050919050565b6000610b3e600e83610dd2565b91507f496e76616c696420726174696e670000000000000000000000000000000000006000830152602082019050919050565b610b7a81610e8f565b82525050565b610b8981610e99565b82525050565b600060c0820190508181036000830152610ba98189610ab8565b90508181036020830152610bbd8188610ab8565b9050610bcc6040830187610b71565b610bd96060830186610a9a565b610be66080830185610b80565b610bf360a0830184610b80565b979650505050505050565b600060a0820190508181036000830152610c188188610ab8565b90508181036020830152610c2c8187610ab8565b9050610c3b6040830186610b71565b610c486060830185610aa9565b610c556080830184610b80565b9695505050505050565b60006020820190508181036000830152610c7881610af1565b9050919050565b60006020820190508181036000830152610c9881610b31565b9050919050565b6000602082019050610cb46000830184610b71565b92915050565b6000604082019050610ccf6000830185610b71565b610cdc6020830184610aa9565b9392505050565b6000608082019050610cf86000830187610b71565b8181036020830152610d0a8186610ab8565b9050610d196040830185610b71565b610d266060830184610aa9565b95945050505050565b6000606082019050610d446000830186610b71565b610d516020830185610b80565b610d5e6040830184610aa9565b949350505050565b6000604051905081810181811067ffffffffffffffff82111715610d8d57610d8c61101a565b5b8060405250919050565b600067ffffffffffffffff821115610db257610db161101a565b5b601f19601f8301169050602081019050919050565b600081519050919050565b600082825260208201905092915050565b6000610dee82610e99565b9150610df983610e99565b92508260ff03821115610e0f57610e0e610f8d565b5b828201905092915050565b6000610e2582610e99565b9150610e3083610e99565b925082610e4057610e3f610fbc565b5b828204905092915050565b6000610e5682610e6f565b9050919050565b6000610e6882610e6f565b9050919050565b600073ffffffffffffffffffffffffffffffffffffffff82169050919050565b6000819050919050565b600060ff82169050919050565b82818337600083830152505050565b60005b83811015610ed3578082015181840152602081019050610eb8565b83811115610ee2576000848401525b50505050565b60006002820490506001821680610f0057607f821691505b60208210811415610f1457610f13610feb565b5b50919050565b6000610f2582610e8f565b91507fffffffffffffffffffffffffffffffffffffffffffffffffffffffffffffffff821415610f5857610f57610f8d565b5b600182019050919050565b6000610f6e82610e99565b915060ff821415610f8257610f81610f8d565b5b600182019050919050565b7f4e487b7100000000000000000000000000000000000000000000000000000000600052601160045260246000fd5b7f4e487b7100000000000000000000000000000000000000000000000000000000600052601260045260246000fd5b7f4e487b7100000000000000000000000000000000000000000000000000000000600052602260045260246000fd5b7f4e487b7100000000000000000000000000000000000000000000000000000000600052604160045260246000fd5b6000601f19601f8301169050919050565b61106381610e8f565b811461106e57600080fd5b50565b61107a81610e99565b811461108557600080fd5b5056fea2646970667358221220b2f99078c2751880e4d79d22cf0bf823836928447f8b3e42295a6f68c2ae374464736f6c63430008000033",
  "immutableReferences": {},
  "source": "// SPDX-License-Identifier: MIT\r\npragma solidity ^0.8.0;\r\n\r\ncontract AIModelMarketplace {\r\n    struct Model {\r\n        string name;\r\n        string description;\r\n        uint256 price;\r\n        address payable creator;\r\n        uint8 ratingSum;\r\n        uint8 ratingCount;\r\n    }\r\n\r\n    mapping(uint256 => Model) public models;\r\n    uint256 public modelCount;\r\n\r\n    event ModelListed(uint256 modelId, string name, uint256 price, address creator);\r\n    event ModelPurchased(uint256 modelId, address buyer);\r\n    event ModelRated(uint256 modelId, uint8 rating, address rater);\r\n\r\n    function listModel(string memory name, string memory description, uint256 price) public {\r\n        models[modelCount] = Model(name, description, price, payable(msg.sender), 0, 0);\r\n        emit ModelListed(modelCount, name, price, msg.sender);\r\n        modelCount++;\r\n    }\r\n\r\n    function purchaseModel(uint256 modelId) public payable {\r\n        Model storage model = models[modelId];\r\n        require(msg.value == model.price, \"Incorrect price sent\");\r\n        model.creator.transfer(msg.value);\r\n        emit ModelPurchased(modelId, msg.sender);\r\n    }\r\n\r\n    function rateModel(uint256 modelId, uint8 rating) public {\r\n        Model storage model = models[modelId];\r\n        require(rating > 0 && rating <= 5, \"Invalid rating\");\r\n        model.ratingSum += rating;\r\n        model.ratingCount++;\r\n        emit ModelRated(modelId, rating, msg.sender);\r\n    }\r\n\r\n    function getModelDetails(uint256 modelId) public view returns (\r\n        string memory, string memory, uint256, address, uint8\r\n    ) {\r\n        Model storage model = models[modelId];\r\n        uint8 averageRating = model.ratingCount > 0 ? model.ratingSum / model.ratingCount : 0;\r\n        return (model.name, model.description, model.price, model.creator, averageRating);\r\n    }\r\n}\r\n",
  "sourcePath": "C:\\Users\\Meme\\Desktop\\web assignments\\blockchain2\\contracts\\AIModelMarketplace.sol",
  "compiler": {
    "name": "solc",
    "version": "0.8.0+commit.c7dfd78e.Emscripten.clang"
  },
  "schemaVersion": "3.4.16",
  "updatedAt": "2025-01-10T21:25:47.499Z",
  "networkType": "ethereum",
  "devdoc": {
    "kind": "dev",
    "methods": {},
    "version": 1
  },
  "userdoc": {
    "kind": "user",
    "methods": {},
    "version": 1
  }
}