{
  "contractName": "ModelMarketplace",
  "abi": [
    {
      "anonymous": false,
      "inputs": [
        {
          "indexed": false,
          "internalType": "uint256",
          "name": "modelId",
          "type": "uint256"
        },
        {
          "indexed": false,
          "internalType": "string",
          "name": "name",
          "type": "string"
        },
        {
          "indexed": false,
          "internalType": "string",
          "name": "description",
          "type": "string"
        },
        {
          "indexed": false,
          "internalType": "uint256",
          "name": "price",
          "type": "uint256"
        },
        {
          "indexed": false,
          "internalType": "address",
          "name": "owner",
          "type": "address"
        }
      ],
      "name": "ModelListed",
      "type": "event"
    },
    {
      "inputs": [],
      "name": "modelCount",
      "outputs": [
        {
          "internalType": "uint256",
          "name": "",
          "type": "uint256"
        }
      ],
      "stateMutability": "view",
      "type": "function",
      "constant": true
    },
    {
      "inputs": [
        {
          "internalType": "uint256",
          "name": "",
          "type": "uint256"
        }
      ],
      "name": "models",
      "outputs": [
        {
          "internalType": "uint256",
          "name": "id",
          "type": "uint256"
        },
        {
          "internalType": "string",
          "name": "name",
          "type": "string"
        },
        {
          "internalType": "string",
          "name": "description",
          "type": "string"
        },
        {
          "internalType": "uint256",
          "name": "price",
          "type": "uint256"
        },
        {
          "internalType": "uint256",
          "name": "rating",
          "type": "uint256"
        },
        {
          "internalType": "address",
          "name": "owner",
          "type": "address"
        }
      ],
      "stateMutability": "view",
      "type": "function",
      "constant": true
    },
    {
      "inputs": [
        {
          "internalType": "string",
          "name": "name",
          "type": "string"
        },
        {
          "internalType": "string",
          "name": "description",
          "type": "string"
        },
        {
          "internalType": "uint256",
          "name": "price",
          "type": "uint256"
        }
      ],
      "name": "listModel",
      "outputs": [
        {
          "internalType": "uint256",
          "name": "",
          "type": "uint256"
        }
      ],
      "stateMutability": "nonpayable",
      "type": "function"
    },
    {
      "inputs": [
        {
          "internalType": "uint256",
          "name": "modelId",
          "type": "uint256"
        }
      ],
      "name": "getModelDetails",
      "outputs": [
        {
          "internalType": "string",
          "name": "",
          "type": "string"
        },
        {
          "internalType": "string",
          "name": "",
          "type": "string"
        },
        {
          "internalType": "uint256",
          "name": "",
          "type": "uint256"
        },
        {
          "internalType": "uint256",
          "name": "",
          "type": "uint256"
        },
        {
          "internalType": "address",
          "name": "",
          "type": "address"
        }
      ],
      "stateMutability": "view",
      "type": "function",
      "constant": true
    },
    {
      "inputs": [
        {
          "internalType": "uint256",
          "name": "modelId",
          "type": "uint256"
        }
      ],
      "name": "purchaseModel",
      "outputs": [],
      "stateMutability": "payable",
      "type": "function",
      "payable": true
    },
    {
      "inputs": [
        {
          "internalType": "uint256",
          "name": "modelId",
          "type": "uint256"
        },
        {
          "internalType": "uint256",
          "name": "rating",
          "type": "uint256"
        }
      ],
      "name": "rateModel",
      "outputs": [],
      "stateMutability": "nonpayable",
      "type": "function"
    }
  ],
  "bytecode": "0x60806040526000805534801561001457600080fd5b50610d7b806100246000396000f3fe6080604052600436106100555760003560e01c806312ee1c0e1461005a57806331fc042f146100975780636a030ca9146100d857806399c64cc81461011a578063c6a645fe14610143578063dc7468621461016e575b600080fd5b34801561006657600080fd5b50610081600480360381019061007c9190610833565b61018a565b60405161008e9190610a2f565b60405180910390f35b3480156100a357600080fd5b506100be60048036038101906100b991906108b2565b6102ec565b6040516100cf9594939291906109ae565b60405180910390f35b3480156100e457600080fd5b506100ff60048036038101906100fa91906108b2565b61046d565b60405161011196959493929190610aab565b60405180910390f35b34801561012657600080fd5b50610141600480360381019061013c91906108db565b6105d9565b005b34801561014f57600080fd5b506101586105fe565b6040516101659190610a2f565b60405180910390f35b610188600480360381019061018391906108b2565b610604565b005b600080600081548092919061019e90610c47565b91905055506000805490506040518060c00160405280828152602001868152602001858152602001848152602001600081526020013373ffffffffffffffffffffffffffffffffffffffff1681525060016000838152602001908152602001600020600082015181600001556020820151816001019080519060200190610226929190610713565b506040820151816002019080519060200190610243929190610713565b50606082015181600301556080820151816004015560a08201518160050160006101000a81548173ffffffffffffffffffffffffffffffffffffffff021916908373ffffffffffffffffffffffffffffffffffffffff1602179055509050507f988447004164f28081936f22661fc3898dda52a0210617c848e707ce976307bb81868686336040516102d9959493929190610a4a565b60405180910390a1809150509392505050565b6060806000806000806001600088815260200190815260200160002090508060010181600201826003015483600401548460050160009054906101000a900473ffffffffffffffffffffffffffffffffffffffff1684805461034d90610c15565b80601f016020809104026020016040519081016040528092919081815260200182805461037990610c15565b80156103c65780601f1061039b576101008083540402835291602001916103c6565b820191906000526020600020905b8154815290600101906020018083116103a957829003601f168201915b505050505094508380546103d990610c15565b80601f016020809104026020016040519081016040528092919081815260200182805461040590610c15565b80156104525780601f1061042757610100808354040283529160200191610452565b820191906000526020600020905b81548152906001019060200180831161043557829003601f168201915b50505050509350955095509550955095505091939590929450565b600160205280600052604060002060009150905080600001549080600101805461049690610c15565b80601f01602080910402602001604051908101604052809291908181526020018280546104c290610c15565b801561050f5780601f106104e45761010080835404028352916020019161050f565b820191906000526020600020905b8154815290600101906020018083116104f257829003601f168201915b50505050509080600201805461052490610c15565b80601f016020809104026020016040519081016040528092919081815260200182805461055090610c15565b801561059d5780601f106105725761010080835404028352916020019161059d565b820191906000526020600020905b81548152906001019060200180831161058057829003601f168201915b5050505050908060030154908060040154908060050160009054906101000a900473ffffffffffffffffffffffffffffffffffffffff16905086565b6000600160008481526020019081526020016000209050818160040181905550505050565b60005481565b600060016000838152602001908152602001600020905080600301543414610661576040517f08c379a000000000000000000000000000000000000000000000000000000000815260040161065890610a0f565b60405180910390fd5b8060050160009054906101000a900473ffffffffffffffffffffffffffffffffffffffff1673ffffffffffffffffffffffffffffffffffffffff166108fc349081150290604051600060405180830381858888f193505050501580156106cb573d6000803e3d6000fd5b50338160050160006101000a81548173ffffffffffffffffffffffffffffffffffffffff021916908373ffffffffffffffffffffffffffffffffffffffff1602179055505050565b82805461071f90610c15565b90600052602060002090601f0160209004810192826107415760008555610788565b82601f1061075a57805160ff1916838001178555610788565b82800160010185558215610788579182015b8281111561078757825182559160200191906001019061076c565b5b5090506107959190610799565b5090565b5b808211156107b257600081600090555060010161079a565b5090565b60006107c96107c484610b4b565b610b1a565b9050828152602081018484840111156107e157600080fd5b6107ec848285610bd3565b509392505050565b600082601f83011261080557600080fd5b81356108158482602086016107b6565b91505092915050565b60008135905061082d81610d2e565b92915050565b60008060006060848603121561084857600080fd5b600084013567ffffffffffffffff81111561086257600080fd5b61086e868287016107f4565b935050602084013567ffffffffffffffff81111561088b57600080fd5b610897868287016107f4565b92505060406108a88682870161081e565b9150509250925092565b6000602082840312156108c457600080fd5b60006108d28482850161081e565b91505092915050565b600080604083850312156108ee57600080fd5b60006108fc8582860161081e565b925050602061090d8582860161081e565b9150509250929050565b61092081610b97565b82525050565b600061093182610b7b565b61093b8185610b86565b935061094b818560208601610be2565b61095481610d1d565b840191505092915050565b600061096c600f83610b86565b91507f496e636f727265637420707269636500000000000000000000000000000000006000830152602082019050919050565b6109a881610bc9565b82525050565b600060a08201905081810360008301526109c88188610926565b905081810360208301526109dc8187610926565b90506109eb604083018661099f565b6109f8606083018561099f565b610a056080830184610917565b9695505050505050565b60006020820190508181036000830152610a288161095f565b9050919050565b6000602082019050610a44600083018461099f565b92915050565b600060a082019050610a5f600083018861099f565b8181036020830152610a718187610926565b90508181036040830152610a858186610926565b9050610a94606083018561099f565b610aa16080830184610917565b9695505050505050565b600060c082019050610ac0600083018961099f565b8181036020830152610ad28188610926565b90508181036040830152610ae68187610926565b9050610af5606083018661099f565b610b02608083018561099f565b610b0f60a0830184610917565b979650505050505050565b6000604051905081810181811067ffffffffffffffff82111715610b4157610b40610cee565b5b8060405250919050565b600067ffffffffffffffff821115610b6657610b65610cee565b5b601f19601f8301169050602081019050919050565b600081519050919050565b600082825260208201905092915050565b6000610ba282610ba9565b9050919050565b600073ffffffffffffffffffffffffffffffffffffffff82169050919050565b6000819050919050565b82818337600083830152505050565b60005b83811015610c00578082015181840152602081019050610be5565b83811115610c0f576000848401525b50505050565b60006002820490506001821680610c2d57607f821691505b60208210811415610c4157610c40610cbf565b5b50919050565b6000610c5282610bc9565b91507fffffffffffffffffffffffffffffffffffffffffffffffffffffffffffffffff821415610c8557610c84610c90565b5b600182019050919050565b7f4e487b7100000000000000000000000000000000000000000000000000000000600052601160045260246000fd5b7f4e487b7100000000000000000000000000000000000000000000000000000000600052602260045260246000fd5b7f4e487b7100000000000000000000000000000000000000000000000000000000600052604160045260246000fd5b6000601f19601f8301169050919050565b610d3781610bc9565b8114610d4257600080fd5b5056fea26469706673582212202ee492bce49c64222167856cce6694cedac7152943782f2acecbf5f07d20719464736f6c63430008000033",
  "immutableReferences": {},
  "source": "pragma solidity ^0.8.0;\r\n\r\ncontract ModelMarketplace {\r\n    struct Model {\r\n        uint id;\r\n        string name;\r\n        string description;\r\n        uint price;\r\n        uint rating;\r\n        address owner;\r\n    }\r\n\r\n    uint public modelCount = 0;\r\n    mapping(uint => Model) public models;\r\n\r\n    event ModelListed(uint modelId, string name, string description, uint price, address owner);\r\n\r\n    function listModel(string memory name, string memory description, uint price) public returns (uint) {\r\n        modelCount++;\r\n        uint modelId = modelCount;\r\n\r\n        models[modelId] = Model({\r\n            id: modelId,\r\n            name: name,\r\n            description: description,\r\n            price: price,\r\n            rating: 0,\r\n            owner: msg.sender\r\n        });\r\n\r\n        emit ModelListed(modelId, name, description, price, msg.sender);\r\n\r\n        return modelId;\r\n    }\r\n\r\n    function getModelDetails(uint modelId) public view returns (string memory, string memory, uint, uint, address) {\r\n        Model storage model = models[modelId];\r\n        return (model.name, model.description, model.price, model.rating, model.owner);\r\n    }\r\n\r\n    function purchaseModel(uint modelId) public payable {\r\n        Model storage model = models[modelId];\r\n        require(msg.value == model.price, \"Incorrect price\");\r\n\r\n        payable(model.owner).transfer(msg.value);\r\n        model.owner = msg.sender;\r\n    }\r\n\r\n    function rateModel(uint modelId, uint rating) public {\r\n        Model storage model = models[modelId];\r\n        model.rating = rating;\r\n    }\r\n}\r\n",
  "sourcePath": "C:\\Users\\Meme\\Desktop\\web assignments\\blockchain2\\contracts\\AIModelMarketplace.sol",
  "compiler": {
    "name": "solc",
    "version": "0.8.0+commit.c7dfd78e.Emscripten.clang"
  },
  "schemaVersion": "3.4.16",
  "updatedAt": "2025-01-10T22:03:00.507Z",
  "networkType": "ethereum",
  "devdoc": {
    "kind": "dev",
    "methods": {},
    "version": 1
  },
  "userdoc": {
    "kind": "user",
    "methods": {},
    "version": 1
  }
}